S01800006578315F6F75747075745F70756C73652E7372656366
S21440000088064020E5014000E1014000E101400053
S214400010E1014000E1014000E10140000000000035
S214400020000000000000000000000000E101400069
S214400030E101400000000000E1014000E101400015
S214400040E1014000E1014000E1014000E1014000E3
S214400050E1014000E1014000E1014000E1014000D3
S214400060E101400000000000E1014000E1014000E5
S214400070E1014000E10140003D0B4000E10140004D
S214400080E1014000E1014000E1014000E1014000A3
S214400090E1014000E1014000E1014000E101400093
S2144000A0E1014000E1014000E1014000E101400083
S2144000B0E1014000E1014000E1014000E101400073
S2144000C0E1014000E1014000E1014000E101400063
S2144000D0E1014000E1014000E1014000E101400053
S2144000E0E1014000E1014000E1014000E101400043
S2144000F0E1014000E1014000E1014000E101400033
S214400100E1014000E1014000E1014000E101400022
S214400110E1014000E1014000000000000000000056
S214400120E1014000E1014000E1014000E101400002
S214400130E1014000E1014000E1014000E1014000F2
S214400140E1014000E1014000E1014000E1014000E2
S214400150E1014000E1014000E1014000E1014000D2
S214400160E1014000E101400010B5054C237833B969
S214400170044B13B10448AFF300800123237010BD35
S2144001800000402000000000240C40000C4B43B10F
S2144001900C480D4910B5AFF300800C48036823B9EE
S2144001A010BD0A48036833B97047094B002BF7D097
S2144001B0BDE810401847064B002BF5D0184700BF47
S2144001C000000000240C400004004020240C4000A6
S2144001D00000000008B5014B984708BD05034000E5
S2144001E0FEE7000008B5104B104A9A4209D00E4B65
S2144001F00E4A03E011681960043304320C498B42FE
S214400200F8D30C4B02E000221A6004330A4A9342A9
S214400210F9D30A4A0A4B23F07F039360094B984769
S214400220094B9847FEE700BF00004020240C4000E2
S21440023000004020000040208400402000ED00E008
S21440024000004000510B40005503400008B50248EE
S214400250024B984708BD00BF10E000E0C5034000D1
S214400260044B9B6913F4804F03D14FF48042014BFB
S2144002701A61704700060E400F4B1A6F22F40012A8
S2144002801A675A6F22F400125A674FF400125A60E7
S2144002900A4AD2F8143143F01003C2F81431084B1E
S2144002A01A6F42F010021A675A6F42F010025A67ED
S2144002B010225A60704700BF000E0E400080084073
S2144002C000100E4010B582B0074B9847074B984732
S2144002D0074B984700901023064A07490748084CA2
S2144002E0A04702B010BD00BF610240007902400046
S2144002F0390B40001C004020008002403400402063
S2144003004D05400008B50D4B98470D4B9B6913F4BF
S214400310806F03D14FF48062094B1A61094A5368D3
S21440032043F400435360084B4FF400021A631A61CB
S2144003301A60064B9847064B984708BDE9064000AA
S21440034000060E4050180E40000E0E404D02400073
S214400350C502400080B5104B984740220F4B1A61AB
S2144003604FF4002203F580631A610C4F4FF04008AB
S214400370C7F8308001200A4CA0470A4D4FF40026AB
S2144003802E630120A047C7F834800120A0476E6343
S2144003900120A047E9E700BFD5014000000E0E400F
S2144003A0D903400000120E40EFF31083036072B68C
S2144003B0BFF35F8F7047BFF35F8F036883F3108888
S2144003C07047000008B5024B1860024B984708BDBE
S2144003D02C0040200108400010B5044B1C68044B1C
S2144003E0984701462046034B984710BD2C004020B6
S2144003F0D50640000D08400008B500238362C36957
S2144004001BB1A0F108021046984708BD08B5002366
S2144004108362436A1BB1A0F108021046984708BDA4
S21440042038B50446A0F108052C30034B9847236A9C
S2144004300BB12846984738BD7106400070B5154642
S21440044004460E46002818BF002902D0DAB900201C
S21440045000E0002040F23B120D490E4B9847B4F89E
S2144004604420B4F84C309A420FD1A664A4F84C50BD
S2144004700023A4F844300123236304F10800064B0C
S2144004809847284670BD0120E4E76FF01B0070BD1A
S214400490980B4000E1054000ED0A400010B50446C8
S2144004A0838FB0F84420934209D0026C591C818750
S2144004B0D15C044B98472046034B984710BD034BEE
S2144004C0984710BDC90A4000ED0A4000110B400095
S2144004D02DE9F04182B0174605468846002818BFE9
S2144004E0002902D0A2B9002000E000204FF4AC72F0
S2144004F01049114B984701A8104B98473435284669
S2144005000F4B9847064601A80E4B9847002407E035
S2144005100120EBE70134A4B2414428460A4B9847F1
S2144005202146A64201D9BC42F4D3204602B0BDE8DB
S214400530F08100BF980B4000E1054000A903400051
S214400540B1064000B70340002D064000F8B51546FA
S2144005501E4604460F46002818BF002908D0131C24
S21440056018BF012316B10BB1012002E0002000E0C5
S21440057000203A221049114B98473246294604F14A
S21440058034000F4B9847A0B9394604F108000D4B8C
S2144005909847034658B90C4A62600C4A22600C4A97
S2144005A0A2600C4AE2600C4A22610C4A626118461C
S2144005B0F8BD6FF00C03FAE7980B4000E1054000E9
S2144005C0E90540001D0A4000D10440003D044000BB
S2144005D09D04400021044000F90340000D04400003
S2144005E000B900BE7047000070B5154604460E467A
S2144005F0002818BF002902D07AB9002000E0002069
S21440060028220849084B98476B1E1D4207D1636055
S2144006100020A060E060266070BD0120F0E76FF02B
S2144006200C0070BDB80B4000E105400038B50446EC
S2144006300D46002818BF002914BF01200020402284
S21440064009490A4B9847E268A3689A4209D022684B
S21440065061680B40D35C2B70A3680133A360002015
S21440066038BD6FF0090038BDB80B4000E1054000CA
S21440067038B50D46044651220B49003018BF0120BC
S2144006800A4B98472268E36861680B40D554E36894
S214400690A2689A1A61688A4201D9591AA160013340
S2144006A0E360002038BD00BFB80B4000E1054000C5
S2144006B010B5044667220549003018BF0120044B98
S2144006C09847E068A368C01A10BD00BFB80B40004A
S2144006D0E10540004FF4967303FB00F04FF47A7345
S2144006E003FB00F07047000000B583B001A80E4B36
S2144006F098470E4AD2F8883043F47003C2F88830E0
S214400700BFF34F8FBFF36F8F01A8094B9847094A35
S214400710136823F4706343F4A0631360064B984752
S21440072003B05DF804FB00BFA903400000ED00E005
S214400730B7034000000C0E40D90740000E490A6A35
S21440074022F002020D4B13430B620B4B9B6E13F0D1
S214400750010FFAD0084B196A094A0A431A62996A85
S214400760084A0A409A62084A9A62034B9B6E13F004
S214400770020FFAD0704700BF00060E40013E370019
S21440078000003701FFFF00F8013F1820114A136BA5
S21440079023F0700313630F4B9B6E13F0080FFAD0D1
S2144007A00C4A136B23F4407343F480731363094B72
S2144007B09B6E13F0080FFAD0064A136B23F0030320
S2144007C043F002031363034B9B6E13F0080FFAD0FB
S2144007D0704700BF00060E4008B5024B9847024BD4
S2144007E0984708BD3D0740008D074000034B6FF01B
S2144007F07F425A6005221A60704700BF10E000E052
S21440080008B5014B984708BDED074000080E0DE0BF
S2144008100D4B6FF07F40586098600B4B1B6813F48D
S214400820803FFAD001F17F4101311046431EDAB2D3
S2144008300028EDD1044B59609960034B1B6813F4B4
S214400840803FFAD0704700BF10E000E0034B98426C
S21440085000D07047024B1960FBE700BF00800240A3
S2144008603000402010B5044640F22F2205490030A3
S21440087018BF0120044B984704482044C0F38730F3
S21440088010BD00BFE80B4000E105400000C0FDBFC2
S21440089010B504464FF42D720E49003018BF0120A3
S2144008A00D4B984720460D4B9847002343B140F2E6
S2144008B0BE2208490020084B98470023184610BD22
S2144008C003EB43018A0006498A5C9042F6D0013326
S2144008D0DBB2EBE7E80B4000E1054000650840006E
S2144008E0DC0B400010B5044640F2CB2211490030E4
S2144008F018BF0120104B98472046104B9847104B86
S214400900C4F8E430002363606362A362AC222260D2
S2144009104FF4807222604FF40022226000EB4000C9
S2144009208100084A0A4452686260074A22621846B2
S21440093010BD00BFE80B4000E105400091084000B4
S21440094000415355DC0B4000D003040010B504466C
S214400950AE220649003018BF0120054B9847204676
S214400960044B98470D30C0B210BD00BFE80B4000A6
S214400970E10540006508400010B5044640F2892273
S2144009802349003018BF0120224B9847A3695A6973
S21440099012F0020F03D01A6912F0020F18D15A69EA
S2144009A012F4007F03D01A6912F4007F16D15A69F8
S2144009B012F0010F1FD01A6912F0010F1BD05969AF
S2144009C0154A114211D09A694FF480721A6010BDD0
S2144009D00222DA6023682046984710BD4FF4007222
S2144009E0DA60A3682046984710BD62689969C9B224
S2144009F02046904710BD5969074A114200D110BDA4
S214400A004FF480721A60E36820469847F7E700BFC5
S214400A10E80B4000E1054000E000000170B50C46E0
S214400A200646D1222249003018BF0120214B984764
S214400A302046214B9847054608B1284670BDB4610C
S214400A40314620461D4B984720461D4B984743B29B
S214400A50002B0DDB5B0900F01F00012202FA00F0BC
S214400A602033184A42F82300BFF34F8FBFF36F8FEF
S214400A702046134B984743B2002B09DB5B0900F036
S214400A801F00012202FA00F060330E4A42F82300AB
S214400A9020460B4B984743B2002BCEDB5B0900F059
S214400AA01F00012202FA00F0064A42F82300C4E77B
S214400AB0E80B4000E1054000E50840004D084000D6
S214400AC04D09400000E100E038B50C46054640F2CE
S214400AD0B5120449003018BF0120034B9847AB6954
S214400AE0DC6138BDE80B4000E105400010B5044627
S214400AF040F21D220449003018BF0120034B98479E
S214400B00A36902229A6010BDE80B4000E105400050
S214400B1010B5044640F226220549003018BF012091
S214400B20044B9847A3694FF400729A6010BD00BF0B
S214400B30E80B4000E10540000020704708B5024B36
S214400B401868024B984708BD30004020790940009D
S214400B5070B50D4E0D4CA41BA4100025A54209D11E
S214400B600B4E0C4C00F04EF8A41BA4100025A542DA
S214400B7005D170BD56F8253098470135EEE756F852
S214400B80253098470135F2E7100C4000100C400025
S214400B90100C4000140C40002E2E2F68616C2F73F2
S214400BA072632F68616C5F75736172745F6173798D
S214400BB06E632E63000000002E2E2F68616C2F752A
S214400BC074696C732F7372632F7574696C735F727C
S214400BD0696E676275666665722E63000100000086
S214400BE0C0081000D00304002E2E2F68706C2F759E
S214400BF0736172742F68706C5F75736172742E6364
S214400C0000000000F8B500BFF8BC08BC9E46704720
S214400C108D014000F8B500BFF8BC08BC9E46704742
S208400C2069014000E1
S804400000BB
