S02200006578335F6F75747075745F616E645F696E7075745F70756C73652E7372656339
S21440000098064020E5014000E1014000E101400043
S214400010E1014000E1014000E10140000000000035
S214400020000000000000000000000000E101400069
S214400030E101400000000000E1014000E101400015
S214400040E1014000E1014000E1014000E1014000E3
S214400050E1014000E1014000E1014000E1014000D3
S214400060E101400000000000E1014000E1014000E5
S214400070E1014000E1014000650E4000E101400022
S214400080E1014000E1014000E1014000E1014000A3
S214400090E1014000E1014000E1014000E101400093
S2144000A0E1014000E1014000E1014000E101400083
S2144000B0E1014000E1014000E1014000E101400073
S2144000C0E1014000E1014000E1014000E101400063
S2144000D0E1014000E1014000E1014000E101400053
S2144000E0E1014000E1014000E1014000E101400043
S2144000F0E1014000E1014000E1014000E101400033
S214400100E1014000E1014000E1014000E101400022
S214400110E1014000E1014000000000000000000056
S214400120E1014000E1014000E1014000E101400002
S214400130E1014000E1014000E1014000E1014000F2
S214400140E1014000E1014000E1014000E1014000E2
S214400150E1014000E1014000E1014000E1014000D2
S214400160E1014000E101400010B5054C237833B969
S214400170044B13B10448AFF300800123237010BD35
S2144001801000402000000000980F40000C4B43B188
S2144001900C480D4910B5AFF300800C48036823B9EE
S2144001A010BD0A48036833B97047094B002BF7D097
S2144001B0BDE810401847064B002BF5D0184700BF47
S2144001C000000000980F400014004020980F4000A8
S2144001D00000000008B5014B984708BD05034000E5
S2144001E0FEE7000008B5104B104A9A4209D00E4B65
S2144001F00E4A03E011681960043304320C498B42FE
S214400200F8D30C4B02E000221A6004330A4A9342A9
S214400210F9D30A4A0A4B23F07F039360094B984769
S214400220094B9847FEE700BF00004020980F40006B
S21440023010004020100040209800402000ED00E0D4
S21440024000004000790E40003104400008B50248E6
S214400250024B984708BD00BF10E000E0590540003B
S214400260044B9B6913F4804F03D14FF48042014BFB
S2144002701A61704700060E400F4B1A6F22F40012A8
S2144002801A675A6F22F400125A674FF400125A60E7
S2144002900A4AD2F8143143F01003C2F81431084B1E
S2144002A01A6F42F010021A675A6F42F010025A67ED
S2144002B010225A60704700BF000E0E400080084073
S2144002C000100E4010B582B0074B9847074B984732
S2144002D0074B984700901023064A07490748084CA2
S2144002E0A04702B010BD00BF610240007902400046
S2144002F0610E40002C004020008002404800402014
S2144003002107400008B50D4B98470D4B9B6913F4E9
S214400310806F03D14FF48062094B1A61094A5368D3
S21440032043F400435360084B4FF400021A631A61CB
S2144003301A60064B9847064B984708BD95094000FB
S21440034000060E4050180E40000E0E404D02400073
S214400350C5024000044A936B03F40003D94301F4FA
S2144003600001116353637047000E0E400122014B9B
S2144003701A6070473C00402008B50D2202490348E9
S214400380034B984708BD00BF00004020480040206F
S2144003906D05400000B583B08DF8070001220DF1D1
S2144003A007010748074B98470128F7D10021044822
S2144003B0054B98470028F9D103B05DF804FB00BF11
S2144003C0480040206D0540005508400038B50546B9
S2144003D0002403E0285D044B984701342846034B2D
S2144003E09847A042F6D838BD95034000C10E40005D
S2144003F000B583B00A4B1B68002BFBD001220DF1E1
S21440040007010848084B98479DF80700074B984750
S2144004100022034B1A609DF8070003B05DF804FB0A
S2144004203C004020480040209D0540009503400089
S21440043038B52F4B98472F4C2F4A012120462F4D39
S214400440A8472F4A00212046A8472E4A0221204688
S214400450A84720462C4B98470D222C4920462C4B2B
S21440046098472C482C4B98472C49402008612C4BE9
S2144004704FF400225A6148635A631FE02548264BD2
S2144004809847032227491B48214B98474022234B35
S2144004901A631EE01F48204B9847042222491548FD
S2144004A01B4B984740221D4B5A6312E003221F49BC
S2144004B01048174B98471748174B984707221C4930
S2144004C00C48134B98471B4B98473128D6D03228B8
S2144004D0E0D01048104B9847114BDB6B13F4002FBD
S2144004E0E4D0042214490348094B9847E3E700BF89
S2144004F0D50140004800402055034000E107400039
S2144005006D03400079034000B507400000004020DE
S2144005106D054000D40E4000CD034000000E0E4056
S21440052000120E40E00E4000E40E4000F40E400084
S214400530D80E4000F1034000EC0E4000EFF310836D
S214400540036072B6BFF35F8F7047BFF35F8F036879
S21440055083F310887047000008B5024B1860024BC2
S214400560984708BD40004020AD0A400070B516468A
S21440057004460D46002818BF002914BF012000205D
S21440058034220449044B984723683246294620467D
S214400590984770BDF80E4000A108400070B516465A
S2144005A004460D46002818BF002914BF012000202D
S2144005B03D220449044B9847636832462946204604
S2144005C0984770BDF80E4000A108400008B50023CB
S2144005D08362C3691BB1A0F108021046984708BD64
S2144005E008B500238362436A1BB1A0F10802104697
S2144005F0984708BD38B50446A0F108052C30034B93
S2144006009847236A0BB12846984738BD31094000C1
S21440061070B5154604460E46002818BF002902D07D
S214400620DAB9002000E0002040F23B120D490E4BA4
S2144006309847B4F84420B4F84C309A420FD1A66498
S214400640A4F84C500023A4F844300123236304F15B
S2144006500800064B9847284670BD0120E4E76FF037
S2144006601B0070BD0C0F4000A10840008D0D4000DF
S21440067010B50446838FB0F84420934209D0026CEC
S214400680591C8187D15C044B98472046034B9847BA
S21440069010BD034B984710BD690D40008D0D4000BE
S2144006A0B10D40002DE9F04182B017460546884618
S2144006B0002818BF002902D0A2B9002000E0002080
S2144006C04FF4AC721049114B984701A8104B98470D
S2144006D0343528460F4B9847064601A80E4B984798
S2144006E0002407E00120EBE70134A4B24144284649
S2144006F00A4B98472146A64201D9BC42F4D320462D
S21440070002B0BDE8F08100BF0C0F4000A1084000D9
S2144007103D054000710940004B054000ED08400093
S214400720F8B515461E4604460F46002818BF002951
S21440073008D0131C18BF012316B10BB1012002E0EC
S214400740002000E000203A221049114B98473246DC
S214400750294604F134000F4B9847A0B9394604F1B6
S21440076008000D4B9847034658B90C4A62600C4A3D
S21440077022600C4AA2600C4AE2600C4A22610C4A93
S21440078062611846F8BD6FF00C03FAE70C0F4000A4
S214400790A1084000A9084000890C4000A50640007A
S2144007A01106400071064000F5054000CD054000AA
S2144007B0E105400010B5044661220649003018BFE6
S2144007C00120054B984704F10800044B9847002049
S2144007D010BD00BF0C0F4000A1084000350D400082
S2144007E070B50C461646054683221749003018BF9A
S2144007F00120164B9847012C10D024B1022C18D05B
S2144008006FF00C0070BDAE62321C18BF0122012191
S21440081005F108000E4B9847002070BD6E62321CF2
S21440082018BF0122022105F10800094B9847002015
S21440083070BDEE62321C18BF0122032105F108008C
S214400840034B9847002070BD0C0F4000A1084000A5
S214400850D90D400038B50D46044640F20B120D49FE
S214400860003018BF01200C4B98474DB1236B2B60CE
S214400870B4F84430AB8004F13400084B9847E88025
S214400880236B13F0010F01D1002038BD6FF0030039
S21440089038BD00BF0C0F4000A10840007109400061
S2144008A000B900BE7047000070B5154604460E46B7
S2144008B0002818BF002902D07AB9002000E00020A6
S2144008C028220849084B98476B1E1D4207D1636093
S2144008D00020A060E060266070BD0120F0E76FF069
S2144008E00C0070BD2C0F4000A108400038B50446EF
S2144008F00D46002818BF002914BF012000204022C2
S21440090009490A4B9847E268A3689A4209D0226888
S21440091061680B40D35C2B70A3680133A360002052
S21440092038BD6FF0090038BD2C0F4000A1084000CC
S21440093038B50D46044651220B49003018BF0120F9
S2144009400A4B98472268E36861680B40D554E368D1
S214400950A2689A1A61688A4201D9591AA16001337D
S214400960E360002038BD00BF2C0F4000A1084000C7
S21440097010B5044667220549003018BF0120044BD5
S2144009809847E068A368C01A10BD00BF2C0F40000F
S214400990A108400000B583B001A80E4B98470E4A08
S2144009A0D2F8883043F47003C2F88830BFF34F8FD4
S2144009B0BFF36F8F01A8094B9847094A136823F481
S2144009C0706343F4A0631360064B984703B05DF82A
S2144009D004FB00BF3D05400000ED00E04B05400035
S2144009E0000C0E40850A40000E490A6A22F00202B8
S2144009F00D4B13430B620B4B9B6E13F0010FFAD05B
S214400A00084B196A094A0A431A62996A084A0A4010
S214400A109A62084A9A62034B9B6E13F0020FFAD012
S214400A20704700BF00060E40013E37000000370109
S214400A30FFFF00F8013F1820114A136B23F07003A4
S214400A4013630F4B9B6E13F0080FFAD00C4A136BD0
S214400A5023F4407343F480731363094B9B6E13F087
S214400A60080FFAD0064A136B23F0030343F0020341
S214400A701363034B9B6E13F0080FFAD0704700BF0A
S214400A8000060E4008B5024B9847024B984708BDF3
S214400A90E9094000390A4000034B6FF07F425A6034
S214400AA005221A60704700BF10E000E008B5014B11
S214400AB0984708BD990A4000034B984200D07047BB
S214400AC0024B1960FBE700BF008002404400402014
S214400AD010B5044640F22F220549003018BF0120C9
S214400AE0044B984704482044C0F3873010BD00BFED
S214400AF05C0F4000A108400000C0FDBF10B5044692
S214400B004FF42D720E49003018BF01200D4B984708
S214400B1020460D4B9847002343B140F2BE22084979
S214400B200020084B98470023184610BD03EB4301AE
S214400B308A0006498A5C9042F6D00133DBB2EBE786
S214400B405C0F4000A1084000D10A4000500F400012
S214400B5010B5044640F2CB221149003018BF0120A0
S214400B60104B98472046104B9847104BC4F8E4303B
S214400B70002363606362A362AC2222604FF48072FB
S214400B8022604FF40022226000EB40008100084AB9
S214400B900A4452686260074A2262184610BD00BF87
S214400BA05C0F4000A1084000FD0A4000004153553C
S214400BB0500F4000D003040010B50446AE2206494C
S214400BC0003018BF0120054B98472046044B9847F5
S214400BD00D30C0B210BD00BF5C0F4000A108400001
S214400BE0D10A400010B5044640F28922234900301D
S214400BF018BF0120224B9847A3695A6912F0020F8A
S214400C0003D01A6912F0020F18D15A6912F4007F05
S214400C1003D01A6912F4007F16D15A6912F0010FF8
S214400C201FD01A6912F0010F1BD05969154A11429C
S214400C3011D09A694FF480721A6010BD0222DA60B1
S214400C4023682046984710BD4FF40072DA60A368C8
S214400C502046984710BD62689969C9B220469047B9
S214400C6010BD5969074A114200D110BD4FF4807239
S214400C701A60E36820469847F7E700BF5C0F4000DD
S214400C80A1084000E000000170B50C460646D1229F
S214400C902249003018BF0120214B98472046214B5F
S214400CA09847054608B1284670BDB461314620468F
S214400CB01D4B984720461D4B984743B2002B0DDBF3
S214400CC05B0900F01F00012202FA00F02033184AA8
S214400CD042F82300BFF34F8FBFF36F8F2046134B6E
S214400CE0984743B2002B09DB5B0900F01F00012246
S214400CF002FA00F060330E4A42F8230020460B4BBF
S214400D00984743B2002BCEDB5B0900F01F00012260
S214400D1002FA00F0064A42F82300C4E75C0F40009F
S214400D20A1084000510B4000B90A4000B90B4000F2
S214400D3000E100E070B50A4E044640F21312314618
S214400D40003018BF0120074DA847A4694FF43D72F4
S214400D503146201C18BF0120A8475023236070BD91
S214400D605C0F4000A108400038B50C46054640F2EE
S214400D70B5120449003018BF0120034B9847AB69B1
S214400D80DC6138BD5C0F4000A108400010B5044649
S214400D9040F21D220449003018BF0120034B9847FB
S214400DA0A36902229A6010BD5C0F4000A108400073
S214400DB010B5044640F226220549003018BF0120EF
S214400DC0044B9847A3694FF400729A6010BD00BF69
S214400DD05C0F4000A108400070B50C46164605461C
S214400DE04FF414721B49003018BF01201A4B984725
S214400DF0C6B1022C18BF002C04D0012C0AD0032CFC
S214400E000CD070BDAB6902229A60AB694FF4007299
S214400E109A6070BDAB6901229A6070BDAB690F4A9B
S214400E209A6070BD022C18BF002C07D0012C0DD044
S214400E30032CE6D1AB69094ADA60E2E7AB690222E5
S214400E40DA60AB694FF40072DA6070BDAB690122BC
S214400E50DA6070BD5C0F4000A1084000E000000171
S214400E600020704708B5024B1868024B984708BDEB
S214400E7044004020E50B400070B50D4E0D4CA41BC1
S214400E80A4100025A54209D10B4E0C4C00F074F876
S214400E90A41BA4100025A54205D170BD56F82530E8
S214400EA098470135EEE756F8253098470135F2E782
S214400EB0840F4000840F4000840F4000880F40009D
S214400EC0034613F8012B002AFBD1181A0138704745
S214400ED0200800000D0A0000496E7075743A200024
S214400EE04F4E21004F4646210000000048494748E3
S214400EF0000000004C4F57002E2E2F68616C2F7359
S214400F0072632F68616C5F696F2E63002E2E2F68A8
S214400F10616C2F7372632F68616C5F757361727456
S214400F205F6173796E632E63000000002E2E2F687B
S214400F30616C2F7574696C732F7372632F75746947
S214400F406C735F72696E676275666665722E630063
S214400F5001000000C0081000D00304002E2E2F68A9
S214400F60706C2F75736172742F68706C5F757361E7
S214400F7072742E6300000000F8B500BFF8BC08BCD1
S214400F809E4670478D014000F8B500BFF8BC08BCCF
S20C400F909E46704769014000CF
S214400F9853746172742050726F6A656374000000FF
S804400000BB
