S01800006578345F696E746572705F74696D65722E737265638A
S214400000F0064020E5014000E1014000E1014000EB
S214400010E1014000E1014000E10140000000000035
S214400020000000000000000000000000E101400069
S214400030E101400000000000E1014000E101400015
S214400040E1014000E1014000E1014000E1014000E3
S214400050E1014000E1014000E1014000E1014000D3
S214400060E101400000000000E1014000E1014000E5
S214400070E1014000E10140004D114000E101400037
S214400080E1014000E1014000E1014000E1014000A3
S214400090E1014000E1014000E10140008D0D4000DB
S2144000A0E1014000E1014000E1014000E101400083
S2144000B0E1014000E1014000E1014000E101400073
S2144000C0E1014000E1014000E1014000E101400063
S2144000D0E1014000E1014000E1014000E101400053
S2144000E0E1014000E1014000E1014000E101400043
S2144000F0E1014000E1014000E1014000E101400033
S214400100E1014000E1014000E1014000E101400022
S214400110E1014000E1014000000000000000000056
S214400120E1014000E1014000E1014000E101400002
S214400130E1014000E1014000E1014000E1014000F2
S214400140E1014000E1014000E1014000E1014000E2
S214400150E1014000E1014000E1014000E1014000D2
S214400160E1014000E101400010B5054C237833B969
S214400170044B13B10448AFF300800123237010BD35
S2144001803400402000000000D41240000C4B43B125
S2144001900C480D4910B5AFF300800C48036823B9EE
S2144001A010BD0A48036833B97047094B002BF7D097
S2144001B0BDE810401847064B002BF5D0184700BF47
S2144001C000000000D412400038004020D412400006
S2144001D00000000008B5014B984708BD29034000C1
S2144001E0FEE7000008B5104B104A9A4209D00E4B65
S2144001F00E4A03E011681960043304320C498B42FE
S214400200F8D30C4B02E000221A6004330A4A9342A9
S214400210F9D30A4A0A4B23F07F039360094B984769
S214400220094B9847FEE700BF00004020D41240002C
S2144002303400402034004020EC00402000ED00E038
S21440024000004000611140003104400008B5084BF2
S2144002509B6913F4000F03D14FF40002044B1A615C
S214400260044B9847024604490448054B984708BD46
S21440027000060E40890D400000C00040D0004020DF
S214400280D9054000044B9B6913F4804F03D14FF4CB
S2144002908042014B1A61704700060E400F4B1A6FA2
S2144002A022F400121A675A6F22F400125A674FF46B
S2144002B000125A600A4AD2F8143143F01003C2F8CA
S2144002C01431084B1A6F42F010021A675A6F42F008
S2144002D010025A6710225A60704700BF000E0E4048
S2144002E00080084000100E4010B582B0074B98477B
S2144002F0074B9847074B984700901023064A0749F4
S2144003000748084CA04702B010BD00BF8502400019
S2144003109D024000491140005000402000800240AD
S214400320800040204D08400008B50D4B98470D4BC7
S2144003309B6913F4806F03D14FF48062094B1A61B6
S214400340094A536843F400435360084B4FF4000295
S2144003501A631A611A60064B9847064B984708BDC1
S214400360390B400000060E4050180E40000E0E405E
S2144003704D024000E9024000044A936B03F4000338
S214400380D94301F40001116353637047000E0E40D9
S2144003900122014B1A6070476000402008B51522C4
S2144003A002490348034B984708BD00BFB8114000B8
S2144003B080004020F104400008B50C220249034862
S2144003C0034B984708BD00BF0000402080004020F7
S2144003D0F104400000B583B08DF8070001220DF10E
S2144003E007010748074B98470128F7D100210448E2
S2144003F0054B98470028F9D103B05DF804FB00BFD1
S21440040080004020F10440008109400038B5054690
S214400410002403E0285D044B984701342846034BEC
S2144004209847A042F6D838BDD5034000A9114000F1
S21440043008B5174B9847174C174A01212046174DC9
S214400440A847174A00212046A847164A02212046B8
S214400450A8472046144B98470D2214492046144B73
S21440046098471448144B984714496423CB60144B60
S2144004700B6101230B75134C04312046124B9847F1
S2144004802046124B984712480B4B9847FBE700BF55
S214400490D501400080004020790340000D0940000F
S2144004A091034000B9034000E108400000004020AE
S2144004B0F1044000D01140000D0440006000402090
S2144004C09D034000D00040205106400015064000E5
S2144004D0D4114000EFF31083036072B6BFF35F8F12
S2144004E07047BFF35F8F036883F310887047000040
S2144004F070B5164604460D46002818BF002914BF9E
S2144005000120002034220449044B98472368324691
S21440051029462046984770BDE8114000CD09400066
S214400520F8B5076817B13C4600260BE00E4B9847D7
S214400530F8BDA5682B449B1A01338D68AB4209D29F
S2144005402646246834B163689342F2D8A5689B1A5D
S2144005502B44F2E7BC4203D03046044B9847F8BDE4
S214400560014B9847F8BD00BFE9094000150A400016
S214400570F8B54469066901360661037E13F0010F3B
S21440058005D1037E13F0020F01D1054609E0037E34
S21440059043F002030376F8BD6F69E3682046984748
S2144005A03C469CB16368F31AA26893420ED305F1A9
S2144005B014073846064B9847237C012BECD16660DF
S2144005C0324621463846034B9847E5E7F8BD00BF1C
S2144005D01D0A40002105400038B504460D46002857
S2144005E018BF002914BF012000203B220549064BB6
S2144005F0984729462046054B984700202061044BE3
S214400600236038BDFC114000CD094000A10C4000DD
S2144006107105400010B5044653220949003018BF02
S2144006200120084B98472046074B984720B920465C
S214400630064B9847002010BD6FF0100010BD00BF5D
S214400640FC114000CD094000650D40005D0D4000A6
S21440065070B582B004460D46002818BF002914BF66
S214400660012000207A221D491D4B9847237E43F0E7
S2144006700103237604F1140629463046194B984761
S21440068088B923696B60226929463046164B9847DD
S214400690237E03F0FE032376237E13F0020F0ED153
S2144006A0002002B070BD237E03F0FE0323767F2237
S2144006B00A4900200A4B98476FF01100F1E701A85D
S2144006C00A4B9847237E03F0FD0323762046084BCB
S2144006D0984701A8074B98470020E2E7FC114000E6
S2144006E0CD094000D309400021054000D504400014
S2144006F0710D4000E304400008B500238362C369DF
S2144007001BB1A0F108021046984708BD08B5002363
S2144007108362436A1BB1A0F108021046984708BDA1
S21440072038B50446A0F108052C30034B9847236A99
S2144007300BB12846984738BDB50A400070B51546F7
S21440074004460E46002818BF002902D0DAB9002019
S21440075000E0002040F23B120D490E4B9847B4F89B
S2144007604420B4F84C309A420FD1A664A4F84C50BA
S2144007700023A4F844300123236304F10800064B09
S2144007809847284670BD0120E4E76FF01B0070BD17
S21440079014124000CD0940007510400010B50446C4
S2144007A0838FB0F84420934209D0026C591C81874D
S2144007B0D15C044B98472046034B984710BD034BEB
S2144007C0984710BD511040007510400099104000E9
S2144007D02DE9F04182B0174605468846002818BFE6
S2144007E0002902D0A2B9002000E000204FF4AC72ED
S2144007F01049114B984701A8104B98473435284666
S2144008000F4B9847064601A80E4B9847002407E032
S2144008100120EBE70134A4B2414428460A4B9847EE
S2144008202146A64201D9BC42F4D3204602B0BDE8D8
S214400830F08100BF14124000CD094000D5044000AE
S214400840F50A4000E3044000710A4000F8B515463A
S2144008501E4604460F46002818BF002908D0131C21
S21440086018BF012316B10BB1012002E0002000E0C2
S21440087000203A221049114B98473246294604F147
S21440088034000F4B9847A0B9394604F108000D4B89
S2144008909847034658B90C4A62600C4A22600C4A94
S2144008A0A2600C4AE2600C4A22610C4A6261184619
S2144008B0F8BD6FF00C03FAE714124000CD09400073
S2144008C02D0A4000710F4000D10740003D07400010
S2144008D09D07400021074000F90640000D074000F4
S2144008E010B5044661220649003018BF0120054B6A
S2144008F0984704F10800044B9847002010BD00BFFD
S21440090014124000CD0940001D10400070B50C4642
S2144009101646054683221749003018BF0120164B5D
S2144009209847012C10D024B1022C18D06FF00C0040
S21440093070BDAE62321C18BF0122012105F10800CD
S2144009400E4B9847002070BD6E62321C18BF0122C5
S214400950022105F10800094B9847002070BDEE6261
S214400960321C18BF0122032105F10800034B9847AB
S214400970002070BD14124000CD094000C110400058
S21440098038B50D46044640F20B120D49003018BFEC
S21440099001200C4B98474DB1236B2B60B4F8443084
S2144009A0AB8004F13400084B9847E880236B13F083
S2144009B0010F01D1002038BD6FF0030038BD00BFE5
S2144009C014124000CD094000F50A400000B900BEB0
S2144009D0704703681BB18B4203D01B68FAE70020C0
S2144009E0704701207047000038B504460D46064B58
S2144009F0984780F0010039220449C0B2044B98471A
S214400A0023682B60256038BDD3094000341240006F
S214400A10CD09400003680B600160704703681BB156
S214400A201A680260184670470020704770B5154631
S214400A3004460E46002818BF002902D07AB9002086
S214400A4000E0002028220849084B98476B1E1D42AC
S214400A5007D163600020A060E060266070BD012082
S214400A60F0E76FF00C0070BD54124000CD09400016
S214400A7038B504460D46002818BF002914BF01208B
S214400A800020402209490A4B9847E268A3689A42E8
S214400A9009D0226861680B40D35C2B70A368013391
S214400AA0A360002038BD6FF0090038BD54124000E6
S214400AB0CD09400038B50D46044651220B4900305A
S214400AC018BF01200A4B98472268E36861680B40CC
S214400AD0D554E368A2689A1A61688A4201D9591ABD
S214400AE0A1600133E360002038BD00BF54124000CF
S214400AF0CD09400010B5044667220549003018BFAE
S214400B000120044B9847E068A368C01A10BD00BF98
S214400B1054124000CD09400043B2002B09DB5B096C
S214400B2000F01F00012202FA00F04033014A42F86A
S214400B302300704700E100E000B583B001A80E4BEB
S214400B4098470E4AD2F8883043F47003C2F888308B
S214400B50BFF34F8FBFF36F8F01A8094B9847094AE1
S214400B60136823F4706343F4A0631360064B9847FE
S214400B7003B05DF804FB00BFD504400000ED00E084
S214400B80E3044000000C0E40290C40000E490A6A5F
S214400B9022F002020D4B13430B620B4B9B6E13F07D
S214400BA0010FFAD0084B196A094A0A431A62996A31
S214400BB0084A0A409A62084A9A62034B9B6E13F0B0
S214400BC0020FFAD0704700BF00060E40013E3700C5
S214400BD000003701FFFF00F8013F1820114A136B51
S214400BE023F0700313630F4B9B6E13F0080FFAD07D
S214400BF00C4A136B23F4407343F480731363094B1E
S214400C009B6E13F0080FFAD0064A136B23F00303CB
S214400C1043F002031363034B9B6E13F0080FFAD0A6
S214400C20704700BF00060E4008B5024B9847024B7F
S214400C30984708BD8D0B4000DD0B400000233BB1BC
S214400C400020704703EBC304A300084618440CE09A
S214400C5010B403EBC3018A0005498A588242F1D09A
S214400C600133DBB2002BF4D000205DF8044B704714
S214400C7010004020034B984200D07047024B19604A
S214400C80FBE700BF00C000407800402008B5C368BE
S214400C901B6A13F0100F00D108BD03689847FBE7A6
S214400CA0F8B507460C460846274B984705468668DB
S214400CB0FC60912225490120254B984716F4004FA9
S214400CC001D046F4142666606B696361AB69A36124
S214400CD0EB682363EB69E361102363622B69C4F816
S214400CE0D830394620461B4B984795F90430002BA0
S214400CF00DDB5A0903F01F03012101FA03F32032EA
S214400D00154941F82230BFF34F8FBFF36F8F95F9E7
S214400D100430002B09DB5A0903F01F03012101FAB6
S214400D2003F360320C4941F8223095F90430002B29
S214400D3008DB590903F01F03012202FA03F3064AAF
S214400D4042F821300020F8BD3D0C400078124000AB
S214400D50CD094000750C400000E100E0C368052264
S214400D601A607047C368186AC0F3004070470000B6
S214400D7008B5C068024B98470079024B984708BDB3
S214400D803D0C4000190B40000020704708B5024B50
S214400D901868024B984708BD780040208D0C4000EC
S214400DA0034B984200D07047024B1960FBE700BFE8
S214400DB0008002407C00402010B5044640F22F22BE
S214400DC00549003018BF0120044B9847044820448A
S214400DD0C0F3873010BD00BF98124000CD094000D8
S214400DE000C0FDBF10B504464FF42D720E490030CA
S214400DF018BF01200D4B984720460D4B98470023BF
S214400E0043B140F2BE2208490020084B98470023D1
S214400E10184610BD03EB43018A0006498A5C90429F
S214400E20F6D00133DBB2EBE798124000CD09400024
S214400E30B90D40008C12400010B5044640F2CB225B
S214400E401149003018BF0120104B98472046104BE0
S214400E509847104BC4F8E430002363606362A36293
S214400E60AC2222604FF4807222604FF4002222604F
S214400E7000EB40008100084A0A4452686260074A14
S214400E802262184610BD00BF98124000CD094000AF
S214400E90E50D4000004153558C124000D00304003D
S214400EA010B50446AE220649003018BF0120054B57
S214400EB098472046044B98470D30C0B210BD00BF3F
S214400EC098124000CD094000B90D400010B50446C8
S214400ED040F289222349003018BF0120224B984710
S214400EE0A3695A6912F0020F03D01A6912F0020F72
S214400EF018D15A6912F4007F03D01A6912F4007FA1
S214400F0016D15A6912F0010F1FD01A6912F0010F5C
S214400F101BD05969154A114211D09A694FF4807214
S214400F201A6010BD0222DA6023682046984710BD3A
S214400F304FF40072DA60A3682046984710BD626896
S214400F409969C9B22046904710BD5969074A11426F
S214400F5000D110BD4FF480721A60E368204698476F
S214400F60F7E700BF98124000CD094000E0000001BE
S214400F7070B50C460646D1222249003018BF0120E3
S214400F80214B98472046214B9847054608B12846AE
S214400F9070BDB461314620461D4B984720461D4BD8
S214400FA0984743B2002B0DDB5B0900F01F0001227F
S214400FB002FA00F02033184A42F82300BFF34F8F5E
S214400FC0BFF36F8F2046134B984743B2002B09DB85
S214400FD05B0900F01F00012202FA00F060330E4A5F
S214400FE042F8230020460B4B984743B2002BCEDBFB
S214400FF05B0900F01F00012202FA00F0064A42F8A0
S2144010002300C4E798124000CD094000390E400046
S214401010A10D4000A10E400000E100E070B50A4E70
S214401020044640F213123146003018BF0120074DE7
S214401030A847A4694FF43D723146201C18BF0120D2
S214401040A8475023236070BD98124000CD09400049
S21440105038B50C46054640F2B5120449003018BF74
S2144010600120034B9847AB69DC6138BD98124000BD
S214401070CD09400010B5044640F21D220449003018
S21440108018BF0120034B9847A36902229A6010BDFF
S21440109098124000CD09400010B5044640F2262282
S2144010A00549003018BF0120044B9847A3694FF408
S2144010B000729A6010BD00BF98124000CD094000F3
S2144010C070B50C46164605464FF414721B49003060
S2144010D018BF01201A4B9847C6B1022C18BF002CE7
S2144010E004D0012C0AD0032C0CD070BDAB69022270
S2144010F09A60AB694FF400729A6070BDAB6901228A
S2144011009A6070BDAB690F4A9A6070BD022C18BFDA
S214401110002C07D0012C0DD0032CE6D1AB69094A30
S214401120DA60E2E7AB690222DA60AB694FF400723C
S214401130DA6070BDAB690122DA6070BD981240007B
S214401140CD094000E00000010020704708B5024B82
S2144011501868024B984708BD7C004020CD0E4000E2
S21440116070B50D4E0D4CA41BA4100025A54209D108
S2144011700B4E0C4C00F09EF8A41BA4100025A54274
S21440118005D170BD56F8253098470135EEE756F83C
S214401190253098470135F2E7C0124000C0124000A3
S2144011A0C0124000C4124000034613F8012B002A28
S2144011B0FBD1181A013870470D0A496E7465727271
S2144011C0757074696F6E210D0A00000020080000DB
S2144011D00D0A000077697468696E206C6F6F702E18
S2144011E02E2E0D0A000000002E2E2F68616C2F73E5
S2144011F072632F68616C5F696F2E63002E2E2F68B6
S214401200616C2F7372632F68616C5F74696D657271
S2144012102E6300002E2E2F68616C2F7372632F682A
S214401220616C5F75736172745F6173796E632E6310
S214401230000000002E2E2F68616C2F7574696C7349
S2144012402F7372632F7574696C735F6C6973742E39
S214401250630000002E2E2F68616C2F7574696C73C6
S2144012602F7372632F7574696C735F72696E6762F1
S21440127075666665722E63002E2E2F68706C2F740E
S214401280632F68706C5F74632E630000010000007B
S214401290C0081000D00304002E2E2F68706C2F75E7
S2144012A0736172742F68706C5F75736172742E63AD
S2144012B000000000F8B500BFF8BC08BC9E4670476A
S2144012C08D014000F8B500BFF8BC08BC9E4670478C
S2084012D0690140002B
S2144012D453746172742050726F6A656374000000C0
S2144012E400C000401700000003C0000000000000DB
S2144012F4000000004902000000000000C62D000067
S20840130400000000A0
S804400000BB
